:10000000663084000730F000F630F10011208000E7
:10001000840A0408703A03191528F10A0319F00A32
:10002000062870088A00710882000A128A111828AE
:1000300003108316031300300318013086000310E9
:100040008312031300300318013086000030F000E3
:100050000030F1002B287008663E840083130008EE
:100060008312031386003030F3007530F4000A1257
:100070008A11E4270A128A110130F0070318F10AE5
:100080000030F1077108803AF20080307202031DDF
:100090004B280A307002031C4E284F282B28262894
:0600A0000A128A1100287B
:100FC800E52F0130F3020030031CF403F402FF3074
:100FD8007406031DF12FFF307306031DF42FF52F40
:100FE800E52F08003F3406345B344F3466346D34E3
:080FF8007D3407347F346F34AF
:02400E003A3F37
:00000001FF
